:100000000C942A000C9447000C9447000C94470071
:100010000C9447000C9447000C9447000C94470044
:100020000C9447000C9447000C9447000C94470034
:100030000C9447000C9447000C9447000C94470024
:100040000C9447000C9447000C9447000C94470014
:100050000C94470011241FBECFE5D8E0DEBFCDBF12
:1000600010E0A0E6B0E0E8E9F4E002C005900D92EF
:10007000A63AB107D9F720E0A6EAB0E001C01D9288
:10008000A03BB207E1F70E94D8000C944A020C94FE
:1000900000000E94E70160E081E00E94C00061E092
:1000A00081E00E94C00062E081E00E94C0000895EB
:1000B00080E690E00E940A0260E081E00E94C800B1
:1000C00061E081E00E94D00062E081E00E94D00007
:1000D000089580E790E00E940A0260E081E00E94BB
:1000E000D00061E081E00E94C80062E081E00E94EF
:1000F000D000089581E890E00E940A0260E081E06B
:100100000E94D00061E081E00E94D00062E081E0C6
:100110000E94C80008958FE890E00E940A020895A6
:1001200086EA90E00E94200262E970E086EA90E0B0
:100130000E944102892B19F40E945800089568E931
:1001400070E086EA90E00E944102892B19F40E9437
:10015000690008956DE970E086EA90E00E9441022E
:10016000892B19F40E947A00089562EA70E086EA09
:1001700090E00E944102892B11F40E948B000895A7
:10018000843028F4683018F441E00E94DD000895BE
:10019000843028F4683018F441E00E946201089528
:1001A000843028F4683018F440E00E946201089519
:1001B0000E9449000E949000FDCF413009F040C0EC
:1001C0008130A1F028F08230F9F0833059F10895A0
:1001D000683008F076C02AB381E090E002C0880F52
:1001E000991F6A95E2F7822B8ABB0895683008F060
:1001F00068C027B381E090E002C0880F991F6A951C
:10020000E2F7822B87BB0895683008F05AC024B308
:1002100081E090E002C0880F991F6A95E2F7822B77
:1002200084BB0895683008F04CC021B381E090E0B1
:1002300002C0880F991F6A95E2F7822B81BB08954F
:1002400041113FC08130A1F028F08230F9F08330B5
:1002500059F108956830A8F52AB381E090E002C012
:10026000880F991F6A95E2F7809582238ABB0895CB
:10027000683038F527B381E090E002C0880F991FFD
:100280006A95E2F78095822387BB08956830C8F4A9
:1002900024B381E090E002C0880F991F6A95E2F7CD
:1002A0008095822384BB0895683058F421B381E09F
:1002B00090E002C0880F991F6A95E2F7809582232B
:1002C00081BB0895413009F040C08130A1F028F091
:1002D0008230F9F0833059F10895683008F076C023
:1002E0002BB381E090E002C0880F991F6A95E2F776
:1002F000822B8BBB0895683008F068C028B381E07A
:1003000090E002C0880F991F6A95E2F7822B88BBA4
:100310000895683008F05AC025B381E090E002C02B
:10032000880F991F6A95E2F7822B85BB0895683084
:1003300008F04CC022B381E090E002C0880F991F02
:100340006A95E2F7822B82BB089541113FC081304C
:10035000A1F028F08230F9F0833059F10895683027
:10036000A8F52BB381E090E002C0880F991F6A9531
:10037000E2F7809582238BBB0895683038F528B367
:1003800081E090E002C0880F991F6A95E2F780959E
:10039000822388BB08956830C8F425B381E090E0DB
:1003A00002C0880F991F6A95E2F78095822385BB6A
:1003B0000895683058F422B381E090E002C0880FBD
:1003C000991F6A95E2F78095822382BB089580B5D4
:1003D000806480BD529880B5846080BD519A80B59C
:1003E0008F7E80BD80B58F7D80BD80B5877F80BDCD
:1003F000579856985598549A539A599A10BC8CE02D
:1004000089B908955D9BFECF8CB908955F9BFECF9F
:100410008CB108950F931F93CF93FC0180818823A3
:1004200059F08F01C0E00E940202CF5FF801EC0F8B
:10043000F11D80818111F7CFCF911F910F91089508
:10044000EF92FF920F931F93CF937C010E940602BD
:10045000F70180838D3061F0C0E0CF5F87010C0F22
:10046000111D0E940602F80180838D30B1F701C092
:100470008701F8011082CF911F910F91FF90EF90AB
:100480000895FB01DC018D91019080190110D9F3D1
:08049000990B0895F894FFCFC9
:10049800477265656E204C6564204973204F4E0095
:1004A80059656C6C6F77204C6564204973204F4EFA
:1004B80000526564204C6564204973204F4E004FFC
:1004C8004B00535441525400574149540053544F20
:0604D80050004154000039
:00000001FF
